{"abi":[{"type":"constructor","inputs":[],"stateMutability":"nonpayable"},{"type":"function","name":"approve","inputs":[{"name":"to","type":"address","internalType":"address"},{"name":"tokenId","type":"uint256","internalType":"uint256"}],"outputs":[],"stateMutability":"nonpayable"},{"type":"function","name":"artworks","inputs":[{"name":"","type":"uint256","internalType":"uint256"}],"outputs":[{"name":"title","type":"string","internalType":"string"},{"name":"artist","type":"string","internalType":"string"},{"name":"description","type":"string","internalType":"string"},{"name":"creationDate","type":"uint256","internalType":"uint256"},{"name":"imageHash","type":"string","internalType":"string"}],"stateMutability":"view"},{"type":"function","name":"balanceOf","inputs":[{"name":"owner","type":"address","internalType":"address"}],"outputs":[{"name":"","type":"uint256","internalType":"uint256"}],"stateMutability":"view"},{"type":"function","name":"getApproved","inputs":[{"name":"tokenId","type":"uint256","internalType":"uint256"}],"outputs":[{"name":"","type":"address","internalType":"address"}],"stateMutability":"view"},{"type":"function","name":"getArtwork","inputs":[{"name":"tokenId","type":"uint256","internalType":"uint256"}],"outputs":[{"name":"","type":"tuple","internalType":"struct ArtChainNFT.ArtMetadata","components":[{"name":"title","type":"string","internalType":"string"},{"name":"artist","type":"string","internalType":"string"},{"name":"description","type":"string","internalType":"string"},{"name":"creationDate","type":"uint256","internalType":"uint256"},{"name":"imageHash","type":"string","internalType":"string"}]}],"stateMutability":"view"},{"type":"function","name":"isApprovedForAll","inputs":[{"name":"owner","type":"address","internalType":"address"},{"name":"operator","type":"address","internalType":"address"}],"outputs":[{"name":"","type":"bool","internalType":"bool"}],"stateMutability":"view"},{"type":"function","name":"mintArtwork","inputs":[{"name":"to","type":"address","internalType":"address"},{"name":"uri","type":"string","internalType":"string"},{"name":"title","type":"string","internalType":"string"},{"name":"artist","type":"string","internalType":"string"},{"name":"description","type":"string","internalType":"string"},{"name":"imageHash","type":"string","internalType":"string"}],"outputs":[{"name":"","type":"uint256","internalType":"uint256"}],"stateMutability":"nonpayable"},{"type":"function","name":"name","inputs":[],"outputs":[{"name":"","type":"string","internalType":"string"}],"stateMutability":"view"},{"type":"function","name":"ownerOf","inputs":[{"name":"tokenId","type":"uint256","internalType":"uint256"}],"outputs":[{"name":"","type":"address","internalType":"address"}],"stateMutability":"view"},{"type":"function","name":"safeTransferFrom","inputs":[{"name":"from","type":"address","internalType":"address"},{"name":"to","type":"address","internalType":"address"},{"name":"tokenId","type":"uint256","internalType":"uint256"}],"outputs":[],"stateMutability":"nonpayable"},{"type":"function","name":"safeTransferFrom","inputs":[{"name":"from","type":"address","internalType":"address"},{"name":"to","type":"address","internalType":"address"},{"name":"tokenId","type":"uint256","internalType":"uint256"},{"name":"data","type":"bytes","internalType":"bytes"}],"outputs":[],"stateMutability":"nonpayable"},{"type":"function","name":"setApprovalForAll","inputs":[{"name":"operator","type":"address","internalType":"address"},{"name":"approved","type":"bool","internalType":"bool"}],"outputs":[],"stateMutability":"nonpayable"},{"type":"function","name":"supportsInterface","inputs":[{"name":"interfaceId","type":"bytes4","internalType":"bytes4"}],"outputs":[{"name":"","type":"bool","internalType":"bool"}],"stateMutability":"view"},{"type":"function","name":"symbol","inputs":[],"outputs":[{"name":"","type":"string","internalType":"string"}],"stateMutability":"view"},{"type":"function","name":"tokenURI","inputs":[{"name":"tokenId","type":"uint256","internalType":"uint256"}],"outputs":[{"name":"","type":"string","internalType":"string"}],"stateMutability":"view"},{"type":"function","name":"totalSupply","inputs":[],"outputs":[{"name":"","type":"uint256","internalType":"uint256"}],"stateMutability":"view"},{"type":"function","name":"transferFrom","inputs":[{"name":"from","type":"address","internalType":"address"},{"name":"to","type":"address","internalType":"address"},{"name":"tokenId","type":"uint256","internalType":"uint256"}],"outputs":[],"stateMutability":"nonpayable"},{"type":"event","name":"Approval","inputs":[{"name":"owner","type":"address","indexed":true,"internalType":"address"},{"name":"approved","type":"address","indexed":true,"internalType":"address"},{"name":"tokenId","type":"uint256","indexed":true,"internalType":"uint256"}],"anonymous":false},{"type":"event","name":"ApprovalForAll","inputs":[{"name":"owner","type":"address","indexed":true,"internalType":"address"},{"name":"operator","type":"address","indexed":true,"internalType":"address"},{"name":"approved","type":"bool","indexed":false,"internalType":"bool"}],"anonymous":false},{"type":"event","name":"ArtworkMinted","inputs":[{"name":"tokenId","type":"uint256","indexed":true,"internalType":"uint256"},{"name":"to","type":"address","indexed":true,"internalType":"address"},{"name":"title","type":"string","indexed":false,"internalType":"string"},{"name":"uri","type":"string","indexed":false,"internalType":"string"}],"anonymous":false},{"type":"event","name":"BatchMetadataUpdate","inputs":[{"name":"_fromTokenId","type":"uint256","indexed":false,"internalType":"uint256"},{"name":"_toTokenId","type":"uint256","indexed":false,"internalType":"uint256"}],"anonymous":false},{"type":"event","name":"MetadataUpdate","inputs":[{"name":"_tokenId","type":"uint256","indexed":false,"internalType":"uint256"}],"anonymous":false},{"type":"event","name":"Transfer","inputs":[{"name":"from","type":"address","indexed":true,"internalType":"address"},{"name":"to","type":"address","indexed":true,"internalType":"address"},{"name":"tokenId","type":"uint256","indexed":true,"internalType":"uint256"}],"anonymous":false},{"type":"error","name":"ERC721IncorrectOwner","inputs":[{"name":"sender","type":"address","internalType":"address"},{"name":"tokenId","type":"uint256","internalType":"uint256"},{"name":"owner","type":"address","internalType":"address"}]},{"type":"error","name":"ERC721InsufficientApproval","inputs":[{"name":"operator","type":"address","internalType":"address"},{"name":"tokenId","type":"uint256","internalType":"uint256"}]},{"type":"error","name":"ERC721InvalidApprover","inputs":[{"name":"approver","type":"address","internalType":"address"}]},{"type":"error","name":"ERC721InvalidOperator","inputs":[{"name":"operator","type":"address","internalType":"address"}]},{"type":"error","name":"ERC721InvalidOwner","inputs":[{"name":"owner","type":"address","internalType":"address"}]},{"type":"error","name":"ERC721InvalidReceiver","inputs":[{"name":"receiver","type":"address","internalType":"address"}]},{"type":"error","name":"ERC721InvalidSender","inputs":[{"name":"sender","type":"address","internalType":"address"}]},{"type":"error","name":"ERC721NonexistentToken","inputs":[{"name":"tokenId","type":"uint256","internalType":"uint256"}]}],"bytecode":{"object":"0x60806040526001600755348015610014575f5ffd5b506040518060400160405280600c81526020017f417274436861696e204e465400000000000000000000000000000000000000008152506040518060400160405280600581526020017f41434e4654000000000000000000000000000000000000000000000000000000815250815f908161008f91906102e4565b50806001908161009f91906102e4565b5050506103b3565b5f81519050919050565b7f4e487b71000000000000000000000000000000000000000000000000000000005f52604160045260245ffd5b7f4e487b71000000000000000000000000000000000000000000000000000000005f52602260045260245ffd5b5f600282049050600182168061012257607f821691505b602082108103610135576101346100de565b5b50919050565b5f819050815f5260205f209050919050565b5f6020601f8301049050919050565b5f82821b905092915050565b5f600883026101977fffffffffffffffffffffffffffffffffffffffffffffffffffffffffffffffff8261015c565b6101a1868361015c565b95508019841693508086168417925050509392505050565b5f819050919050565b5f819050919050565b5f6101e56101e06101db846101b9565b6101c2565b6101b9565b9050919050565b5f819050919050565b6101fe836101cb565b61021261020a826101ec565b848454610168565b825550505050565b5f5f905090565b61022961021a565b6102348184846101f5565b505050565b5b818110156102575761024c5f82610221565b60018101905061023a565b5050565b601f82111561029c5761026d8161013b565b6102768461014d565b81016020851015610285578190505b6102996102918561014d565b830182610239565b50505b505050565b5f82821c905092915050565b5f6102bc5f19846008026102a1565b1980831691505092915050565b5f6102d483836102ad565b9150826002028217905092915050565b6102ed826100a7565b67ffffffffffffffff811115610306576103056100b1565b5b610310825461010b565b61031b82828561025b565b5f60209050601f83116001811461034c575f841561033a578287015190505b61034485826102c9565b8655506103ab565b601f19841661035a8661013b565b5f5b828110156103815784890151825560018201915060208501945060208101905061035c565b8683101561039e578489015161039a601f8916826102ad565b8355505b6001600288020188555050505b505050505050565b612c6c806103c05f395ff3fe608060405234801561000f575f5ffd5b5060043610610109575f3560e01c8063472ef63e116100a057806395d89b411161006f57806395d89b41146102f1578063a22cb4651461030f578063b88d4fde1461032b578063c87b56dd14610347578063e985e9c51461037757610109565b8063472ef63e1461022d5780634b6026731461025d5780636352211e1461029157806370a08231146102c157610109565b8063167ddf6e116100dc578063167ddf6e146101a757806318160ddd146101d757806323b872dd146101f557806342842e0e1461021157610109565b806301ffc9a71461010d57806306fdde031461013d578063081812fc1461015b578063095ea7b31461018b575b5f5ffd5b61012760048036038101906101229190611ead565b6103a7565b6040516101349190611ef2565b60405180910390f35b6101456103b8565b6040516101529190611f7b565b60405180910390f35b61017560048036038101906101709190611fce565b610447565b6040516101829190612038565b60405180910390f35b6101a560048036038101906101a0919061207b565b610462565b005b6101c160048036038101906101bc9190611fce565b610478565b6040516101ce9190612198565b60405180910390f35b6101df6106f6565b6040516101ec91906121c7565b60405180910390f35b61020f600480360381019061020a91906121e0565b61070b565b005b61022b600480360381019061022691906121e0565b61080a565b005b6102476004803603810190610242919061235c565b610829565b60405161025491906121c7565b60405180910390f35b61027760048036038101906102729190611fce565b610951565b604051610288959493929190612471565b60405180910390f35b6102ab60048036038101906102a69190611fce565b610b9b565b6040516102b89190612038565b60405180910390f35b6102db60048036038101906102d691906124de565b610bac565b6040516102e891906121c7565b60405180910390f35b6102f9610c62565b6040516103069190611f7b565b60405180910390f35b61032960048036038101906103249190612533565b610cf2565b005b6103456004803603810190610340919061260f565b610d08565b005b610361600480360381019061035c9190611fce565b610d2d565b60405161036e9190611f7b565b60405180910390f35b610391600480360381019061038c919061268f565b610d3f565b60405161039e9190611ef2565b60405180910390f35b5f6103b182610dcd565b9050919050565b60605f80546103c6906126fa565b80601f01602080910402602001604051908101604052809291908181526020018280546103f2906126fa565b801561043d5780601f106104145761010080835404028352916020019161043d565b820191905f5260205f20905b81548152906001019060200180831161042057829003601f168201915b5050505050905090565b5f61045182610e2d565b5061045b82610eb3565b9050919050565b610474828261046f610eec565b610ef3565b5050565b610480611e19565b61048982610b9b565b5060085f8381526020019081526020015f206040518060a00160405290815f820180546104b5906126fa565b80601f01602080910402602001604051908101604052809291908181526020018280546104e1906126fa565b801561052c5780601f106105035761010080835404028352916020019161052c565b820191905f5260205f20905b81548152906001019060200180831161050f57829003601f168201915b50505050508152602001600182018054610545906126fa565b80601f0160208091040260200160405190810160405280929190818152602001828054610571906126fa565b80156105bc5780601f10610593576101008083540402835291602001916105bc565b820191905f5260205f20905b81548152906001019060200180831161059f57829003601f168201915b505050505081526020016002820180546105d5906126fa565b80601f0160208091040260200160405190810160405280929190818152602001828054610601906126fa565b801561064c5780601f106106235761010080835404028352916020019161064c565b820191905f5260205f20905b81548152906001019060200180831161062f57829003601f168201915b505050505081526020016003820154815260200160048201805461066f906126fa565b80601f016020809104026020016040519081016040528092919081815260200182805461069b906126fa565b80156106e65780601f106106bd576101008083540402835291602001916106e6565b820191905f5260205f20905b8154815290600101906020018083116106c957829003601f168201915b5050505050815250509050919050565b5f60016007546107069190612757565b905090565b5f73ffffffffffffffffffffffffffffffffffffffff168273ffffffffffffffffffffffffffffffffffffffff160361077b575f6040517f64a0ae920000000000000000000000000000000000000000000000000000000081526004016107729190612038565b60405180910390fd5b5f61078e8383610789610eec565b610f05565b90508373ffffffffffffffffffffffffffffffffffffffff168173ffffffffffffffffffffffffffffffffffffffff1614610804578382826040517f64283d7b0000000000000000000000000000000000000000000000000000000081526004016107fb9392919061278a565b60405180910390fd5b50505050565b61082483838360405180602001604052805f815250610d08565b505050565b5f5f60075f81548092919061083d906127bf565b91905055905061084d8882611110565b610857818861112d565b6040518060a001604052808781526020018681526020018581526020014281526020018481525060085f8381526020019081526020015f205f820151815f0190816108a291906129a6565b5060208201518160010190816108b891906129a6565b5060408201518160020190816108ce91906129a6565b506060820151816003015560808201518160040190816108ee91906129a6565b509050508773ffffffffffffffffffffffffffffffffffffffff16817f47a02f800e670d6e4f16855aec3367a057665d51998edaed65636fa10624969e888a60405161093b929190612a75565b60405180910390a3809150509695505050505050565b6008602052805f5260405f205f91509050805f018054610970906126fa565b80601f016020809104026020016040519081016040528092919081815260200182805461099c906126fa565b80156109e75780601f106109be576101008083540402835291602001916109e7565b820191905f5260205f20905b8154815290600101906020018083116109ca57829003601f168201915b5050505050908060010180546109fc906126fa565b80601f0160208091040260200160405190810160405280929190818152602001828054610a28906126fa565b8015610a735780601f10610a4a57610100808354040283529160200191610a73565b820191905f5260205f20905b815481529060010190602001808311610a5657829003601f168201915b505050505090806002018054610a88906126fa565b80601f0160208091040260200160405190810160405280929190818152602001828054610ab4906126fa565b8015610aff5780601f10610ad657610100808354040283529160200191610aff565b820191905f5260205f20905b815481529060010190602001808311610ae257829003601f168201915b505050505090806003015490806004018054610b1a906126fa565b80601f0160208091040260200160405190810160405280929190818152602001828054610b46906126fa565b8015610b915780601f10610b6857610100808354040283529160200191610b91565b820191905f5260205f20905b815481529060010190602001808311610b7457829003601f168201915b5050505050905085565b5f610ba582610e2d565b9050919050565b5f5f73ffffffffffffffffffffffffffffffffffffffff168273ffffffffffffffffffffffffffffffffffffffff1603610c1d575f6040517f89c62b64000000000000000000000000000000000000000000000000000000008152600401610c149190612038565b60405180910390fd5b60035f8373ffffffffffffffffffffffffffffffffffffffff1673ffffffffffffffffffffffffffffffffffffffff1681526020019081526020015f20549050919050565b606060018054610c71906126fa565b80601f0160208091040260200160405190810160405280929190818152602001828054610c9d906126fa565b8015610ce85780601f10610cbf57610100808354040283529160200191610ce8565b820191905f5260205f20905b815481529060010190602001808311610ccb57829003601f168201915b5050505050905090565b610d04610cfd610eec565b8383611187565b5050565b610d1384848461070b565b610d27610d1e610eec565b858585856112f0565b50505050565b6060610d388261149c565b9050919050565b5f60055f8473ffffffffffffffffffffffffffffffffffffffff1673ffffffffffffffffffffffffffffffffffffffff1681526020019081526020015f205f8373ffffffffffffffffffffffffffffffffffffffff1673ffffffffffffffffffffffffffffffffffffffff1681526020019081526020015f205f9054906101000a900460ff16905092915050565b5f634906490660e01b7bffffffffffffffffffffffffffffffffffffffffffffffffffffffff1916827bffffffffffffffffffffffffffffffffffffffffffffffffffffffff19161480610e265750610e25826115a7565b5b9050919050565b5f5f610e3883611688565b90505f73ffffffffffffffffffffffffffffffffffffffff168173ffffffffffffffffffffffffffffffffffffffff1603610eaa57826040517f7e273289000000000000000000000000000000000000000000000000000000008152600401610ea191906121c7565b60405180910390fd5b80915050919050565b5f60045f8381526020019081526020015f205f9054906101000a900473ffffffffffffffffffffffffffffffffffffffff169050919050565b5f33905090565b610f0083838360016116c1565b505050565b5f5f610f1084611688565b90505f73ffffffffffffffffffffffffffffffffffffffff168373ffffffffffffffffffffffffffffffffffffffff1614610f5157610f50818486611880565b5b5f73ffffffffffffffffffffffffffffffffffffffff168173ffffffffffffffffffffffffffffffffffffffff1614610fdc57610f905f855f5f6116c1565b600160035f8373ffffffffffffffffffffffffffffffffffffffff1673ffffffffffffffffffffffffffffffffffffffff1681526020019081526020015f205f82825403925050819055505b5f73ffffffffffffffffffffffffffffffffffffffff168573ffffffffffffffffffffffffffffffffffffffff161461105b57600160035f8773ffffffffffffffffffffffffffffffffffffffff1673ffffffffffffffffffffffffffffffffffffffff1681526020019081526020015f205f82825401925050819055505b8460025f8681526020019081526020015f205f6101000a81548173ffffffffffffffffffffffffffffffffffffffff021916908373ffffffffffffffffffffffffffffffffffffffff160217905550838573ffffffffffffffffffffffffffffffffffffffff168273ffffffffffffffffffffffffffffffffffffffff167fddf252ad1be2c89b69c2b068fc378daa952ba7f163c4a11628f55a4df523b3ef60405160405180910390a4809150509392505050565b611129828260405180602001604052805f815250611943565b5050565b8060065f8481526020019081526020015f20908161114b91906129a6565b507ff8e1a15aba9398e019f0b49df1a4fde98ee17ae345cb5f6b5e2c27f5033e8ce78260405161117b91906121c7565b60405180910390a15050565b5f73ffffffffffffffffffffffffffffffffffffffff168273ffffffffffffffffffffffffffffffffffffffff16036111f757816040517f5b08ba180000000000000000000000000000000000000000000000000000000081526004016111ee9190612038565b60405180910390fd5b8060055f8573ffffffffffffffffffffffffffffffffffffffff1673ffffffffffffffffffffffffffffffffffffffff1681526020019081526020015f205f8473ffffffffffffffffffffffffffffffffffffffff1673ffffffffffffffffffffffffffffffffffffffff1681526020019081526020015f205f6101000a81548160ff0219169083151502179055508173ffffffffffffffffffffffffffffffffffffffff168373ffffffffffffffffffffffffffffffffffffffff167f17307eab39ab6107e8899845ad3d59bd9653f200f220920489ca2b5937696c31836040516112e39190611ef2565b60405180910390a3505050565b5f8373ffffffffffffffffffffffffffffffffffffffff163b1115611495578273ffffffffffffffffffffffffffffffffffffffff1663150b7a02868685856040518563ffffffff1660e01b815260040161134e9493929190612afc565b6020604051808303815f875af192505050801561138957506040513d601f19601f820116820180604052508101906113869190612b5a565b60015b61140a573d805f81146113b7576040519150601f19603f3d011682016040523d82523d5f602084013e6113bc565b606091505b505f81510361140257836040517f64a0ae920000000000000000000000000000000000000000000000000000000081526004016113f99190612038565b60405180910390fd5b805160208201fd5b63150b7a0260e01b7bffffffffffffffffffffffffffffffffffffffffffffffffffffffff1916817bffffffffffffffffffffffffffffffffffffffffffffffffffffffff19161461149357836040517f64a0ae9200000000000000000000000000000000000000000000000000000000815260040161148a9190612038565b60405180910390fd5b505b5050505050565b60606114a782610e2d565b505f60065f8481526020019081526020015f2080546114c5906126fa565b80601f01602080910402602001604051908101604052809291908181526020018280546114f1906126fa565b801561153c5780601f106115135761010080835404028352916020019161153c565b820191905f5260205f20905b81548152906001019060200180831161151f57829003601f168201915b505050505090505f61154c611966565b90505f8151036115605781925050506115a2565b5f8251111561159457808260405160200161157c929190612bbf565b604051602081830303815290604052925050506115a2565b61159d8461197c565b925050505b919050565b5f7f80ac58cd000000000000000000000000000000000000000000000000000000007bffffffffffffffffffffffffffffffffffffffffffffffffffffffff1916827bffffffffffffffffffffffffffffffffffffffffffffffffffffffff1916148061167157507f5b5e139f000000000000000000000000000000000000000000000000000000007bffffffffffffffffffffffffffffffffffffffffffffffffffffffff1916827bffffffffffffffffffffffffffffffffffffffffffffffffffffffff1916145b806116815750611680826119e2565b5b9050919050565b5f60025f8381526020019081526020015f205f9054906101000a900473ffffffffffffffffffffffffffffffffffffffff169050919050565b80806116f957505f73ffffffffffffffffffffffffffffffffffffffff168273ffffffffffffffffffffffffffffffffffffffff1614155b1561182b575f61170884610e2d565b90505f73ffffffffffffffffffffffffffffffffffffffff168373ffffffffffffffffffffffffffffffffffffffff161415801561177257508273ffffffffffffffffffffffffffffffffffffffff168173ffffffffffffffffffffffffffffffffffffffff1614155b801561178557506117838184610d3f565b155b156117c757826040517fa9fbf51f0000000000000000000000000000000000000000000000000000000081526004016117be9190612038565b60405180910390fd5b811561182957838573ffffffffffffffffffffffffffffffffffffffff168273ffffffffffffffffffffffffffffffffffffffff167f8c5be1e5ebec7d5bd14f71427d1e84f3dd0314c0f7b2291e5b200ac8c7c3b92560405160405180910390a45b505b8360045f8581526020019081526020015f205f6101000a81548173ffffffffffffffffffffffffffffffffffffffff021916908373ffffffffffffffffffffffffffffffffffffffff16021790555050505050565b61188b838383611a4b565b61193e575f73ffffffffffffffffffffffffffffffffffffffff168373ffffffffffffffffffffffffffffffffffffffff16036118ff57806040517f7e2732890000000000000000000000000000000000000000000000000000000081526004016118f691906121c7565b60405180910390fd5b81816040517f177e802f000000000000000000000000000000000000000000000000000000008152600401611935929190612be2565b60405180910390fd5b505050565b61194d8383611b0b565b611961611958610eec565b5f8585856112f0565b505050565b606060405180602001604052805f815250905090565b606061198782610e2d565b505f611991611966565b90505f8151116119af5760405180602001604052805f8152506119da565b806119b984611bfe565b6040516020016119ca929190612bbf565b6040516020818303038152906040525b915050919050565b5f7f01ffc9a7000000000000000000000000000000000000000000000000000000007bffffffffffffffffffffffffffffffffffffffffffffffffffffffff1916827bffffffffffffffffffffffffffffffffffffffffffffffffffffffff1916149050919050565b5f5f73ffffffffffffffffffffffffffffffffffffffff168373ffffffffffffffffffffffffffffffffffffffff1614158015611b0257508273ffffffffffffffffffffffffffffffffffffffff168473ffffffffffffffffffffffffffffffffffffffff161480611ac35750611ac28484610d3f565b5b80611b0157508273ffffffffffffffffffffffffffffffffffffffff16611ae983610eb3565b73ffffffffffffffffffffffffffffffffffffffff16145b5b90509392505050565b5f73ffffffffffffffffffffffffffffffffffffffff168273ffffffffffffffffffffffffffffffffffffffff1603611b7b575f6040517f64a0ae92000000000000000000000000000000000000000000000000000000008152600401611b729190612038565b60405180910390fd5b5f611b8783835f610f05565b90505f73ffffffffffffffffffffffffffffffffffffffff168173ffffffffffffffffffffffffffffffffffffffff1614611bf9575f6040517f73c6ac6e000000000000000000000000000000000000000000000000000000008152600401611bf09190612038565b60405180910390fd5b505050565b60605f6001611c0c84611cc8565b0190505f8167ffffffffffffffff811115611c2a57611c29612238565b5b6040519080825280601f01601f191660200182016040528015611c5c5781602001600182028036833780820191505090505b5090505f82602083010190505b600115611cbd578080600190039150507f3031323334353637383961626364656600000000000000000000000000000000600a86061a8153600a8581611cb257611cb1612c09565b5b0494505f8503611c69575b819350505050919050565b5f5f5f90507a184f03e93ff9f4daa797ed6e38ed64bf6a1f0100000000000000008310611d24577a184f03e93ff9f4daa797ed6e38ed64bf6a1f0100000000000000008381611d1a57611d19612c09565b5b0492506040810190505b6d04ee2d6d415b85acef81000000008310611d61576d04ee2d6d415b85acef81000000008381611d5757611d56612c09565b5b0492506020810190505b662386f26fc100008310611d9057662386f26fc100008381611d8657611d85612c09565b5b0492506010810190505b6305f5e1008310611db9576305f5e1008381611daf57611dae612c09565b5b0492506008810190505b6127108310611dde576127108381611dd457611dd3612c09565b5b0492506004810190505b60648310611e015760648381611df757611df6612c09565b5b0492506002810190505b600a8310611e10576001810190505b80915050919050565b6040518060a001604052806060815260200160608152602001606081526020015f8152602001606081525090565b5f604051905090565b5f5ffd5b5f5ffd5b5f7fffffffff0000000000000000000000000000000000000000000000000000000082169050919050565b611e8c81611e58565b8114611e96575f5ffd5b50565b5f81359050611ea781611e83565b92915050565b5f60208284031215611ec257611ec1611e50565b5b5f611ecf84828501611e99565b91505092915050565b5f8115159050919050565b611eec81611ed8565b82525050565b5f602082019050611f055f830184611ee3565b92915050565b5f81519050919050565b5f82825260208201905092915050565b8281835e5f83830152505050565b5f601f19601f8301169050919050565b5f611f4d82611f0b565b611f578185611f15565b9350611f67818560208601611f25565b611f7081611f33565b840191505092915050565b5f6020820190508181035f830152611f938184611f43565b905092915050565b5f819050919050565b611fad81611f9b565b8114611fb7575f5ffd5b50565b5f81359050611fc881611fa4565b92915050565b5f60208284031215611fe357611fe2611e50565b5b5f611ff084828501611fba565b91505092915050565b5f73ffffffffffffffffffffffffffffffffffffffff82169050919050565b5f61202282611ff9565b9050919050565b61203281612018565b82525050565b5f60208201905061204b5f830184612029565b92915050565b61205a81612018565b8114612064575f5ffd5b50565b5f8135905061207581612051565b92915050565b5f5f6040838503121561209157612090611e50565b5b5f61209e85828601612067565b92505060206120af85828601611fba565b9150509250929050565b5f82825260208201905092915050565b5f6120d382611f0b565b6120dd81856120b9565b93506120ed818560208601611f25565b6120f681611f33565b840191505092915050565b61210a81611f9b565b82525050565b5f60a083015f8301518482035f86015261212a82826120c9565b9150506020830151848203602086015261214482826120c9565b9150506040830151848203604086015261215e82826120c9565b91505060608301516121736060860182612101565b506080830151848203608086015261218b82826120c9565b9150508091505092915050565b5f6020820190508181035f8301526121b08184612110565b905092915050565b6121c181611f9b565b82525050565b5f6020820190506121da5f8301846121b8565b92915050565b5f5f5f606084860312156121f7576121f6611e50565b5b5f61220486828701612067565b935050602061221586828701612067565b925050604061222686828701611fba565b9150509250925092565b5f5ffd5b5f5ffd5b7f4e487b71000000000000000000000000000000000000000000000000000000005f52604160045260245ffd5b61226e82611f33565b810181811067ffffffffffffffff8211171561228d5761228c612238565b5b80604052505050565b5f61229f611e47565b90506122ab8282612265565b919050565b5f67ffffffffffffffff8211156122ca576122c9612238565b5b6122d382611f33565b9050602081019050919050565b828183375f83830152505050565b5f6123006122fb846122b0565b612296565b90508281526020810184848401111561231c5761231b612234565b5b6123278482856122e0565b509392505050565b5f82601f83011261234357612342612230565b5b81356123538482602086016122ee565b91505092915050565b5f5f5f5f5f5f60c0878903121561237657612375611e50565b5b5f61238389828a01612067565b965050602087013567ffffffffffffffff8111156123a4576123a3611e54565b5b6123b089828a0161232f565b955050604087013567ffffffffffffffff8111156123d1576123d0611e54565b5b6123dd89828a0161232f565b945050606087013567ffffffffffffffff8111156123fe576123fd611e54565b5b61240a89828a0161232f565b935050608087013567ffffffffffffffff81111561242b5761242a611e54565b5b61243789828a0161232f565b92505060a087013567ffffffffffffffff81111561245857612457611e54565b5b61246489828a0161232f565b9150509295509295509295565b5f60a0820190508181035f8301526124898188611f43565b9050818103602083015261249d8187611f43565b905081810360408301526124b18186611f43565b90506124c060608301856121b8565b81810360808301526124d28184611f43565b90509695505050505050565b5f602082840312156124f3576124f2611e50565b5b5f61250084828501612067565b91505092915050565b61251281611ed8565b811461251c575f5ffd5b50565b5f8135905061252d81612509565b92915050565b5f5f6040838503121561254957612548611e50565b5b5f61255685828601612067565b92505060206125678582860161251f565b9150509250929050565b5f67ffffffffffffffff82111561258b5761258a612238565b5b61259482611f33565b9050602081019050919050565b5f6125b36125ae84612571565b612296565b9050828152602081018484840111156125cf576125ce612234565b5b6125da8482856122e0565b509392505050565b5f82601f8301126125f6576125f5612230565b5b81356126068482602086016125a1565b91505092915050565b5f5f5f5f6080858703121561262757612626611e50565b5b5f61263487828801612067565b945050602061264587828801612067565b935050604061265687828801611fba565b925050606085013567ffffffffffffffff81111561267757612676611e54565b5b612683878288016125e2565b91505092959194509250565b5f5f604083850312156126a5576126a4611e50565b5b5f6126b285828601612067565b92505060206126c385828601612067565b9150509250929050565b7f4e487b71000000000000000000000000000000000000000000000000000000005f52602260045260245ffd5b5f600282049050600182168061271157607f821691505b602082108103612724576127236126cd565b5b50919050565b7f4e487b71000000000000000000000000000000000000000000000000000000005f52601160045260245ffd5b5f61276182611f9b565b915061276c83611f9b565b92508282039050818111156127845761278361272a565b5b92915050565b5f60608201905061279d5f830186612029565b6127aa60208301856121b8565b6127b76040830184612029565b949350505050565b5f6127c982611f9b565b91507fffffffffffffffffffffffffffffffffffffffffffffffffffffffffffffffff82036127fb576127fa61272a565b5b600182019050919050565b5f819050815f5260205f209050919050565b5f6020601f8301049050919050565b5f82821b905092915050565b5f600883026128627fffffffffffffffffffffffffffffffffffffffffffffffffffffffffffffffff82612827565b61286c8683612827565b95508019841693508086168417925050509392505050565b5f819050919050565b5f6128a76128a261289d84611f9b565b612884565b611f9b565b9050919050565b5f819050919050565b6128c08361288d565b6128d46128cc826128ae565b848454612833565b825550505050565b5f5f905090565b6128eb6128dc565b6128f68184846128b7565b505050565b5b818110156129195761290e5f826128e3565b6001810190506128fc565b5050565b601f82111561295e5761292f81612806565b61293884612818565b81016020851015612947578190505b61295b61295385612818565b8301826128fb565b50505b505050565b5f82821c905092915050565b5f61297e5f1984600802612963565b1980831691505092915050565b5f612996838361296f565b9150826002028217905092915050565b6129af82611f0b565b67ffffffffffffffff8111156129c8576129c7612238565b5b6129d282546126fa565b6129dd82828561291d565b5f60209050601f831160018114612a0e575f84156129fc578287015190505b612a06858261298b565b865550612a6d565b601f198416612a1c86612806565b5f5b82811015612a4357848901518255600182019150602085019450602081019050612a1e565b86831015612a605784890151612a5c601f89168261296f565b8355505b6001600288020188555050505b505050505050565b5f6040820190508181035f830152612a8d8185611f43565b90508181036020830152612aa18184611f43565b90509392505050565b5f81519050919050565b5f82825260208201905092915050565b5f612ace82612aaa565b612ad88185612ab4565b9350612ae8818560208601611f25565b612af181611f33565b840191505092915050565b5f608082019050612b0f5f830187612029565b612b1c6020830186612029565b612b2960408301856121b8565b8181036060830152612b3b8184612ac4565b905095945050505050565b5f81519050612b5481611e83565b92915050565b5f60208284031215612b6f57612b6e611e50565b5b5f612b7c84828501612b46565b91505092915050565b5f81905092915050565b5f612b9982611f0b565b612ba38185612b85565b9350612bb3818560208601611f25565b80840191505092915050565b5f612bca8285612b8f565b9150612bd68284612b8f565b91508190509392505050565b5f604082019050612bf55f830185612029565b612c0260208301846121b8565b9392505050565b7f4e487b71000000000000000000000000000000000000000000000000000000005f52601260045260245ffdfea2646970667358221220d44b12577755088d8c9e3b4a6fdc5a4e3fa14a8a46d9fae19a3399d1c471bd8f64736f6c634300081e0033","linkReferences":{}},"methodIdentifiers":{"approve(address,uint256)":"095ea7b3","artworks(uint256)":"4b602673","balanceOf(address)":"70a08231","getApproved(uint256)":"081812fc","getArtwork(uint256)":"167ddf6e","isApprovedForAll(address,address)":"e985e9c5","mintArtwork(address,string,string,string,string,string)":"472ef63e","name()":"06fdde03","ownerOf(uint256)":"6352211e","safeTransferFrom(address,address,uint256)":"42842e0e","safeTransferFrom(address,address,uint256,bytes)":"b88d4fde","setApprovalForAll(address,bool)":"a22cb465","supportsInterface(bytes4)":"01ffc9a7","symbol()":"95d89b41","tokenURI(uint256)":"c87b56dd","totalSupply()":"18160ddd","transferFrom(address,address,uint256)":"23b872dd"},"id":39}