{"abi":[{"type":"constructor","inputs":[],"stateMutability":"nonpayable"},{"type":"function","name":"approve","inputs":[{"name":"to","type":"address","internalType":"address"},{"name":"tokenId","type":"uint256","internalType":"uint256"}],"outputs":[],"stateMutability":"nonpayable"},{"type":"function","name":"artworks","inputs":[{"name":"","type":"uint256","internalType":"uint256"}],"outputs":[{"name":"title","type":"string","internalType":"string"},{"name":"artist","type":"string","internalType":"string"},{"name":"description","type":"string","internalType":"string"},{"name":"creationDate","type":"uint256","internalType":"uint256"},{"name":"imageHash","type":"string","internalType":"string"},{"name":"transferable","type":"bool","internalType":"bool"}],"stateMutability":"view"},{"type":"function","name":"balanceOf","inputs":[{"name":"owner","type":"address","internalType":"address"}],"outputs":[{"name":"","type":"uint256","internalType":"uint256"}],"stateMutability":"view"},{"type":"function","name":"batchMintArtworks","inputs":[{"name":"recipients","type":"address[]","internalType":"address[]"},{"name":"uris","type":"string[]","internalType":"string[]"},{"name":"titles","type":"string[]","internalType":"string[]"},{"name":"artists","type":"string[]","internalType":"string[]"},{"name":"descriptions","type":"string[]","internalType":"string[]"},{"name":"imageHashes","type":"string[]","internalType":"string[]"}],"outputs":[{"name":"","type":"uint256[]","internalType":"uint256[]"}],"stateMutability":"payable"},{"type":"function","name":"batchTransfer","inputs":[{"name":"to","type":"address","internalType":"address"},{"name":"tokenIds","type":"uint256[]","internalType":"uint256[]"}],"outputs":[],"stateMutability":"payable"},{"type":"function","name":"burnArtwork","inputs":[{"name":"tokenId","type":"uint256","internalType":"uint256"}],"outputs":[],"stateMutability":"nonpayable"},{"type":"function","name":"getApproved","inputs":[{"name":"tokenId","type":"uint256","internalType":"uint256"}],"outputs":[{"name":"","type":"address","internalType":"address"}],"stateMutability":"view"},{"type":"function","name":"getArtworkMetadata","inputs":[{"name":"tokenId","type":"uint256","internalType":"uint256"}],"outputs":[{"name":"","type":"tuple","internalType":"struct ArtChainNFT.ArtMetadata","components":[{"name":"title","type":"string","internalType":"string"},{"name":"artist","type":"string","internalType":"string"},{"name":"description","type":"string","internalType":"string"},{"name":"creationDate","type":"uint256","internalType":"uint256"},{"name":"imageHash","type":"string","internalType":"string"},{"name":"transferable","type":"bool","internalType":"bool"}]}],"stateMutability":"view"},{"type":"function","name":"getTokensByOwner","inputs":[{"name":"tokenOwner","type":"address","internalType":"address"}],"outputs":[{"name":"","type":"uint256[]","internalType":"uint256[]"}],"stateMutability":"view"},{"type":"function","name":"getTransferCount","inputs":[{"name":"tokenId","type":"uint256","internalType":"uint256"}],"outputs":[{"name":"","type":"uint256","internalType":"uint256"}],"stateMutability":"view"},{"type":"function","name":"isApprovedForAll","inputs":[{"name":"owner","type":"address","internalType":"address"},{"name":"operator","type":"address","internalType":"address"}],"outputs":[{"name":"","type":"bool","internalType":"bool"}],"stateMutability":"view"},{"type":"function","name":"isTransferable","inputs":[{"name":"tokenId","type":"uint256","internalType":"uint256"}],"outputs":[{"name":"","type":"bool","internalType":"bool"}],"stateMutability":"view"},{"type":"function","name":"mintArtwork","inputs":[{"name":"to","type":"address","internalType":"address"},{"name":"uri","type":"string","internalType":"string"},{"name":"title","type":"string","internalType":"string"},{"name":"artist","type":"string","internalType":"string"},{"name":"description","type":"string","internalType":"string"},{"name":"imageHash","type":"string","internalType":"string"}],"outputs":[{"name":"","type":"uint256","internalType":"uint256"}],"stateMutability":"payable"},{"type":"function","name":"mintArtworkByOwner","inputs":[{"name":"to","type":"address","internalType":"address"},{"name":"uri","type":"string","internalType":"string"},{"name":"title","type":"string","internalType":"string"},{"name":"artist","type":"string","internalType":"string"},{"name":"description","type":"string","internalType":"string"},{"name":"imageHash","type":"string","internalType":"string"}],"outputs":[{"name":"","type":"uint256","internalType":"uint256"}],"stateMutability":"nonpayable"},{"type":"function","name":"mintFee","inputs":[],"outputs":[{"name":"","type":"uint256","internalType":"uint256"}],"stateMutability":"view"},{"type":"function","name":"mintingEnabled","inputs":[],"outputs":[{"name":"","type":"bool","internalType":"bool"}],"stateMutability":"view"},{"type":"function","name":"name","inputs":[],"outputs":[{"name":"","type":"string","internalType":"string"}],"stateMutability":"view"},{"type":"function","name":"owner","inputs":[],"outputs":[{"name":"","type":"address","internalType":"address"}],"stateMutability":"view"},{"type":"function","name":"ownerOf","inputs":[{"name":"tokenId","type":"uint256","internalType":"uint256"}],"outputs":[{"name":"","type":"address","internalType":"address"}],"stateMutability":"view"},{"type":"function","name":"renounceOwnership","inputs":[],"outputs":[],"stateMutability":"nonpayable"},{"type":"function","name":"safeTransferFrom","inputs":[{"name":"from","type":"address","internalType":"address"},{"name":"to","type":"address","internalType":"address"},{"name":"tokenId","type":"uint256","internalType":"uint256"}],"outputs":[],"stateMutability":"nonpayable"},{"type":"function","name":"safeTransferFrom","inputs":[{"name":"from","type":"address","internalType":"address"},{"name":"to","type":"address","internalType":"address"},{"name":"tokenId","type":"uint256","internalType":"uint256"},{"name":"data","type":"bytes","internalType":"bytes"}],"outputs":[],"stateMutability":"nonpayable"},{"type":"function","name":"setApprovalForAll","inputs":[{"name":"operator","type":"address","internalType":"address"},{"name":"approved","type":"bool","internalType":"bool"}],"outputs":[],"stateMutability":"nonpayable"},{"type":"function","name":"setTokenTransferable","inputs":[{"name":"tokenId","type":"uint256","internalType":"uint256"},{"name":"transferable","type":"bool","internalType":"bool"}],"outputs":[],"stateMutability":"nonpayable"},{"type":"function","name":"supportsInterface","inputs":[{"name":"interfaceId","type":"bytes4","internalType":"bytes4"}],"outputs":[{"name":"","type":"bool","internalType":"bool"}],"stateMutability":"view"},{"type":"function","name":"symbol","inputs":[],"outputs":[{"name":"","type":"string","internalType":"string"}],"stateMutability":"view"},{"type":"function","name":"toggleMinting","inputs":[],"outputs":[],"stateMutability":"nonpayable"},{"type":"function","name":"toggleTransferFees","inputs":[],"outputs":[],"stateMutability":"nonpayable"},{"type":"function","name":"tokenURI","inputs":[{"name":"tokenId","type":"uint256","internalType":"uint256"}],"outputs":[{"name":"","type":"string","internalType":"string"}],"stateMutability":"view"},{"type":"function","name":"totalSupply","inputs":[],"outputs":[{"name":"","type":"uint256","internalType":"uint256"}],"stateMutability":"view"},{"type":"function","name":"transferArtwork","inputs":[{"name":"to","type":"address","internalType":"address"},{"name":"tokenId","type":"uint256","internalType":"uint256"}],"outputs":[],"stateMutability":"payable"},{"type":"function","name":"transferFee","inputs":[],"outputs":[{"name":"","type":"uint256","internalType":"uint256"}],"stateMutability":"view"},{"type":"function","name":"transferFeesEnabled","inputs":[],"outputs":[{"name":"","type":"bool","internalType":"bool"}],"stateMutability":"view"},{"type":"function","name":"transferFrom","inputs":[{"name":"from","type":"address","internalType":"address"},{"name":"to","type":"address","internalType":"address"},{"name":"tokenId","type":"uint256","internalType":"uint256"}],"outputs":[],"stateMutability":"nonpayable"},{"type":"function","name":"transferHistory","inputs":[{"name":"","type":"uint256","internalType":"uint256"}],"outputs":[{"name":"","type":"uint256","internalType":"uint256"}],"stateMutability":"view"},{"type":"function","name":"transferOwnership","inputs":[{"name":"newOwner","type":"address","internalType":"address"}],"outputs":[],"stateMutability":"nonpayable"},{"type":"function","name":"updateMintFee","inputs":[{"name":"newFee","type":"uint256","internalType":"uint256"}],"outputs":[],"stateMutability":"nonpayable"},{"type":"function","name":"updateTransferFee","inputs":[{"name":"newFee","type":"uint256","internalType":"uint256"}],"outputs":[],"stateMutability":"nonpayable"},{"type":"function","name":"withdrawFees","inputs":[],"outputs":[],"stateMutability":"nonpayable"},{"type":"event","name":"Approval","inputs":[{"name":"owner","type":"address","indexed":true,"internalType":"address"},{"name":"approved","type":"address","indexed":true,"internalType":"address"},{"name":"tokenId","type":"uint256","indexed":true,"internalType":"uint256"}],"anonymous":false},{"type":"event","name":"ApprovalForAll","inputs":[{"name":"owner","type":"address","indexed":true,"internalType":"address"},{"name":"operator","type":"address","indexed":true,"internalType":"address"},{"name":"approved","type":"bool","indexed":false,"internalType":"bool"}],"anonymous":false},{"type":"event","name":"ArtworkMinted","inputs":[{"name":"tokenId","type":"uint256","indexed":true,"internalType":"uint256"},{"name":"to","type":"address","indexed":true,"internalType":"address"},{"name":"title","type":"string","indexed":false,"internalType":"string"},{"name":"uri","type":"string","indexed":false,"internalType":"string"}],"anonymous":false},{"type":"event","name":"ArtworkTransferred","inputs":[{"name":"tokenId","type":"uint256","indexed":true,"internalType":"uint256"},{"name":"from","type":"address","indexed":true,"internalType":"address"},{"name":"to","type":"address","indexed":true,"internalType":"address"},{"name":"transferCount","type":"uint256","indexed":false,"internalType":"uint256"}],"anonymous":false},{"type":"event","name":"BatchMetadataUpdate","inputs":[{"name":"_fromTokenId","type":"uint256","indexed":false,"internalType":"uint256"},{"name":"_toTokenId","type":"uint256","indexed":false,"internalType":"uint256"}],"anonymous":false},{"type":"event","name":"MetadataUpdate","inputs":[{"name":"_tokenId","type":"uint256","indexed":false,"internalType":"uint256"}],"anonymous":false},{"type":"event","name":"MintFeeUpdated","inputs":[{"name":"oldFee","type":"uint256","indexed":false,"internalType":"uint256"},{"name":"newFee","type":"uint256","indexed":false,"internalType":"uint256"}],"anonymous":false},{"type":"event","name":"OwnershipTransferred","inputs":[{"name":"previousOwner","type":"address","indexed":true,"internalType":"address"},{"name":"newOwner","type":"address","indexed":true,"internalType":"address"}],"anonymous":false},{"type":"event","name":"Transfer","inputs":[{"name":"from","type":"address","indexed":true,"internalType":"address"},{"name":"to","type":"address","indexed":true,"internalType":"address"},{"name":"tokenId","type":"uint256","indexed":true,"internalType":"uint256"}],"anonymous":false},{"type":"event","name":"TransferFeeUpdated","inputs":[{"name":"oldFee","type":"uint256","indexed":false,"internalType":"uint256"},{"name":"newFee","type":"uint256","indexed":false,"internalType":"uint256"}],"anonymous":false},{"type":"error","name":"ERC721IncorrectOwner","inputs":[{"name":"sender","type":"address","internalType":"address"},{"name":"tokenId","type":"uint256","internalType":"uint256"},{"name":"owner","type":"address","internalType":"address"}]},{"type":"error","name":"ERC721InsufficientApproval","inputs":[{"name":"operator","type":"address","internalType":"address"},{"name":"tokenId","type":"uint256","internalType":"uint256"}]},{"type":"error","name":"ERC721InvalidApprover","inputs":[{"name":"approver","type":"address","internalType":"address"}]},{"type":"error","name":"ERC721InvalidOperator","inputs":[{"name":"operator","type":"address","internalType":"address"}]},{"type":"error","name":"ERC721InvalidOwner","inputs":[{"name":"owner","type":"address","internalType":"address"}]},{"type":"error","name":"ERC721InvalidReceiver","inputs":[{"name":"receiver","type":"address","internalType":"address"}]},{"type":"error","name":"ERC721InvalidSender","inputs":[{"name":"sender","type":"address","internalType":"address"}]},{"type":"error","name":"ERC721NonexistentToken","inputs":[{"name":"tokenId","type":"uint256","internalType":"uint256"}]},{"type":"error","name":"OwnableInvalidOwner","inputs":[{"name":"owner","type":"address","internalType":"address"}]},{"type":"error","name":"OwnableUnauthorizedAccount","inputs":[{"name":"account","type":"address","internalType":"address"}]}],"bytecode":{"object":"0x608060405260016008819055662386f26fc10000600c5566038d7ea4c68000600d55600e805461ffff191690911790553480156200003b575f80fd5b50336040518060400160405280600c81526020016b105c9d10da185a5b8813919560a21b815250604051806040016040528060058152602001641050d3919560da1b815250815f9081620000909190620001d1565b5060016200009f8282620001d1565b5050506001600160a01b038116620000d057604051631e4fbdf760e01b81525f600482015260240160405180910390fd5b620000db81620000e2565b506200029d565b600780546001600160a01b038381166001600160a01b0319831681179093556040519116919082907f8be0079c531659141344cd1fd0a4f28419497f9722a3daafe3b4186f6b6457e0905f90a35050565b634e487b7160e01b5f52604160045260245ffd5b600181811c908216806200015c57607f821691505b6020821081036200017b57634e487b7160e01b5f52602260045260245ffd5b50919050565b601f821115620001cc57805f5260205f20601f840160051c81016020851015620001a85750805b601f840160051c820191505b81811015620001c9575f8155600101620001b4565b50505b505050565b81516001600160401b03811115620001ed57620001ed62000133565b6200020581620001fe845462000147565b8462000181565b602080601f8311600181146200023b575f8415620002235750858301515b5f19600386901b1c1916600185901b17855562000295565b5f85815260208120601f198616915b828110156200026b578886015182559484019460019091019084016200024a565b50858210156200028957878501515f19600388901b60f8161c191681555b505060018460011b0185555b505050505050565b613b4980620002ab5f395ff3fe608060405260043610610227575f3560e01c806370a0823111610129578063ac3c9952116100a8578063e6cb84d01161006d578063e6cb84d014610625578063e985e9c514610651578063effb3c5314610670578063f2c82bf01461068e578063f2fde38b146106ad575f80fd5b8063ac3c9952146105a0578063acb2ad6f146105b3578063b2564569146105c8578063b88d4fde146105e7578063c87b56dd14610606575f80fd5b80638577a6d5116100ee5780638577a6d5146105185780638da5cb5b1461053757806395d89b41146105545780639fd6db1214610568578063a22cb46514610581575f80fd5b806370a0823114610487578063715018a6146104a65780637d55094d146104ba578063816c99de146104ce57806384017e52146104f9575f80fd5b806318160ddd116101b5578063472ef63e1161017a578063472ef63e146103fc578063476343ee1461040f5780634b602673146104235780636352211e14610454578063695b9d6614610473575f80fd5b806318160ddd1461036c57806323b872dd1461038057806335f8f5741461039f57806340398d67146103be57806342842e0e146103dd575f80fd5b8063091a67e6116101fb578063091a67e6146102e4578063095ea7b3146103035780630c45ed07146103245780630fa9a6c51461033757806313966db514610357575f80fd5b80623a4a0f1461022b57806301ffc9a71461025d57806306fdde031461028c578063081812fc146102ad575b5f80fd5b348015610236575f80fd5b5061024a610245366004613025565b6106cc565b6040519081526020015b60405180910390f35b348015610268575f80fd5b5061027c610277366004613051565b61071e565b6040519015158152602001610254565b348015610297575f80fd5b506102a061072e565b60405161025491906130b9565b3480156102b8575f80fd5b506102cc6102c7366004613025565b6107bd565b6040516001600160a01b039091168152602001610254565b3480156102ef575f80fd5b5061024a6102fe36600461319e565b6107e4565b34801561030e575f80fd5b5061032261031d366004613276565b610a1c565b005b610322610332366004613276565b610a2b565b61034a6103453660046133af565b610ce5565b604051610254919061348d565b348015610362575f80fd5b5061024a600c5481565b348015610377575f80fd5b5061024a611184565b34801561038b575f80fd5b5061032261039a3660046134d0565b611199565b3480156103aa575f80fd5b506103226103b9366004613518565b61123a565b3480156103c9575f80fd5b5061034a6103d8366004613542565b611296565b3480156103e8575f80fd5b506103226103f73660046134d0565b6112ff565b61024a61040a36600461319e565b61131e565b34801561041a575f80fd5b50610322611623565b34801561042e575f80fd5b5061044261043d366004613025565b6116a6565b6040516102549695949392919061355b565b34801561045f575f80fd5b506102cc61046e366004613025565b6118f4565b34801561047e575f80fd5b506103226118fe565b348015610492575f80fd5b5061024a6104a1366004613542565b611923565b3480156104b1575f80fd5b50610322611968565b3480156104c5575f80fd5b5061032261197b565b3480156104d9575f80fd5b5061024a6104e8366004613025565b600a6020525f908152604090205481565b348015610504575f80fd5b50610322610513366004613025565b611997565b348015610523575f80fd5b50610322610532366004613025565b6119e5565b348015610542575f80fd5b506007546001600160a01b03166102cc565b34801561055f575f80fd5b506102a0611a2b565b348015610573575f80fd5b50600e5461027c9060ff1681565b34801561058c575f80fd5b5061032261059b3660046135c3565b611a3a565b6103226105ae3660046135eb565b611a45565b3480156105be575f80fd5b5061024a600d5481565b3480156105d3575f80fd5b5061027c6105e2366004613025565b611db2565b3480156105f2575f80fd5b5061032261060136600461368a565b611dfd565b348015610611575f80fd5b506102a0610620366004613025565b611ea0565b348015610630575f80fd5b5061064461063f366004613025565b611ee3565b6040516102549190613701565b34801561065c575f80fd5b5061027c61066b366004613798565b6121c6565b34801561067b575f80fd5b50600e5461027c90610100900460ff1681565b348015610699575f80fd5b506103226106a8366004613025565b6121f3565b3480156106b8575f80fd5b506103226106c7366004613542565b612293565b5f81816106d8826122d0565b6001600160a01b0316036107075760405162461bcd60e51b81526004016106fe906137c0565b60405180910390fd5b5f838152600a602052604090205491505b50919050565b5f610728826122ea565b92915050565b60605f805461073c906137ee565b80601f0160208091040260200160405190810160405280929190818152602001828054610768906137ee565b80156107b35780601f1061078a576101008083540402835291602001916107b3565b820191905f5260205f20905b81548152906001019060200180831161079657829003601f168201915b5050505050905090565b5f6107c78261230e565b505f828152600460205260409020546001600160a01b0316610728565b5f6107ed612345565b6001600160a01b0387166108435760405162461bcd60e51b815260206004820152601b60248201527f43616e6e6f74206d696e7420746f207a65726f2061646472657373000000000060448201526064016106fe565b5f8651116108895760405162461bcd60e51b81526020600482015260136024820152725552492063616e6e6f7420626520656d70747960681b60448201526064016106fe565b5f8551116108d15760405162461bcd60e51b81526020600482015260156024820152745469746c652063616e6e6f7420626520656d70747960581b60448201526064016106fe565b600880545f91826108e183613834565b9190505590506108f18882612372565b6108fb818861238b565b6040805160c081018252878152602080820188905281830187905242606083015260808201869052600160a08301525f848152600990915291909120815181906109459082613890565b506020820151600182019061095a9082613890565b506040820151600282019061096f9082613890565b50606082015160038201556080820151600482019061098e9082613890565b5060a091909101516005909101805460ff19169115159190911790556001600160a01b0388165f818152600b60209081526040808320805460018101825590845291909220018390555182907f47a02f800e670d6e4f16855aec3367a057665d51998edaed65636fa10624969e90610a09908a908c9061394c565b60405180910390a3979650505050505050565b610a278282336123d3565b5050565b805f610a36826122d0565b6001600160a01b031603610a5c5760405162461bcd60e51b81526004016106fe906137c0565b5f8281526009602052604090206005015460ff16610a8c5760405162461bcd60e51b81526004016106fe90613979565b33610a96836118f4565b6001600160a01b031614610abc5760405162461bcd60e51b81526004016106fe906139b0565b6001600160a01b038316610b125760405162461bcd60e51b815260206004820152601f60248201527f43616e6e6f74207472616e7366657220746f207a65726f20616464726573730060448201526064016106fe565b336001600160a01b03841603610b6a5760405162461bcd60e51b815260206004820152601b60248201527f43616e6e6f74207472616e7366657220746f20796f757273656c66000000000060448201526064016106fe565b600e54610100900460ff1615610bcc57600d54341015610bcc5760405162461bcd60e51b815260206004820152601960248201527f496e73756666696369656e74207472616e73666572206665650000000000000060448201526064016106fe565b33610bd781846123e0565b6001600160a01b0384165f908152600b60209081526040808320805460018101825590845282842001869055858352600a9091528120805491610c1983613834565b9190505550610c2981858561249a565b600e54610100900460ff168015610c415750600d5434115b15610c8057600d5433906108fc90610c5990346139f3565b6040518115909202915f818181858888f19350505050158015610c7e573d5f803e3d5ffd5b505b836001600160a01b0316816001600160a01b0316847fd779e8c2de288998c807bfb186d47d82b06c29e962e3954a025f76377c231425600a5f8881526020019081526020015f2054604051610cd791815260200190565b60405180910390a450505050565b600e5460609060ff16610d3a5760405162461bcd60e51b815260206004820152601d60248201527f4d696e74696e672069732063757272656e746c792064697361626c656400000060448201526064016106fe565b865180610d825760405162461bcd60e51b81526020600482015260166024820152754172726179732063616e6e6f7420626520656d70747960501b60448201526064016106fe565b865181148015610d925750855181145b8015610d9e5750845181145b8015610daa5750835181145b8015610db65750825181145b610dfb5760405162461bcd60e51b8152602060048201526016602482015275082e4e4c2f2e640d8cadccee8d040dad2e6dac2e8c6d60531b60448201526064016106fe565b80600c54610e099190613a06565b341015610e585760405162461bcd60e51b815260206004820152601f60248201527f496e73756666696369656e74206d696e742066656520666f722062617463680060448201526064016106fe565b5f8167ffffffffffffffff811115610e7257610e726130e6565b604051908082528060200260200182016040528015610e9b578160200160208202803683370190505b5090505f5b8281101561112857600880545f9182610eb883613834565b919050559050610ee18b8381518110610ed357610ed3613a1d565b602002602001015182612372565b610f04818b8481518110610ef757610ef7613a1d565b602002602001015161238b565b6040518060c001604052808a8481518110610f2157610f21613a1d565b60200260200101518152602001898481518110610f4057610f40613a1d565b60200260200101518152602001888481518110610f5f57610f5f613a1d565b60200260200101518152602001428152602001878481518110610f8457610f84613a1d565b60209081029190910181015182526001918101919091525f83815260099091526040902081518190610fb69082613890565b5060208201516001820190610fcb9082613890565b5060408201516002820190610fe09082613890565b506060820151600382015560808201516004820190610fff9082613890565b5060a0820151816005015f6101000a81548160ff021916908315150217905550905050600b5f8c848151811061103757611037613a1d565b6020908102919091018101516001600160a01b03168252818101929092526040015f9081208054600181018255908252919020018190558251819084908490811061108457611084613a1d565b6020026020010181815250508a82815181106110a2576110a2613a1d565b60200260200101516001600160a01b0316817f47a02f800e670d6e4f16855aec3367a057665d51998edaed65636fa10624969e8b85815181106110e7576110e7613a1d565b60200260200101518d868151811061110157611101613a1d565b602002602001015160405161111792919061394c565b60405180910390a350600101610ea0565b505f82600c546111389190613a06565b90508034111561117757336108fc61115083346139f3565b6040518115909202915f818181858888f19350505050158015611175573d5f803e3d5ffd5b505b5098975050505050505050565b5f600160085461119491906139f3565b905090565b805f6111a4826122d0565b6001600160a01b0316036111ca5760405162461bcd60e51b81526004016106fe906137c0565b5f8281526009602052604090206005015460ff166111fa5760405162461bcd60e51b81526004016106fe90613979565b61120d611206836118f4565b3384612547565b6112295760405162461bcd60e51b81526004016106fe90613a31565b61123484848461249a565b50505050565b611242612345565b815f61124d826122d0565b6001600160a01b0316036112735760405162461bcd60e51b81526004016106fe906137c0565b505f91825260096020526040909120600501805460ff1916911515919091179055565b6001600160a01b0381165f908152600b60209081526040918290208054835181840281018401909452808452606093928301828280156112f357602002820191905f5260205f20905b8154815260200190600101908083116112df575b50505050509050919050565b61131983838360405180602001604052805f815250611dfd565b505050565b600e545f9060ff166113725760405162461bcd60e51b815260206004820152601d60248201527f4d696e74696e672069732063757272656e746c792064697361626c656400000060448201526064016106fe565b600c543410156113bc5760405162461bcd60e51b8152602060048201526015602482015274496e73756666696369656e74206d696e742066656560581b60448201526064016106fe565b6001600160a01b0387166114125760405162461bcd60e51b815260206004820152601b60248201527f43616e6e6f74206d696e7420746f207a65726f2061646472657373000000000060448201526064016106fe565b5f8651116114585760405162461bcd60e51b81526020600482015260136024820152725552492063616e6e6f7420626520656d70747960681b60448201526064016106fe565b5f8551116114a05760405162461bcd60e51b81526020600482015260156024820152745469746c652063616e6e6f7420626520656d70747960581b60448201526064016106fe565b600880545f91826114b083613834565b9190505590506114c08882612372565b6114ca818861238b565b6040805160c081018252878152602080820188905281830187905242606083015260808201869052600160a08301525f848152600990915291909120815181906115149082613890565b50602082015160018201906115299082613890565b506040820151600282019061153e9082613890565b50606082015160038201556080820151600482019061155d9082613890565b5060a091909101516005909101805460ff19169115159190911790556001600160a01b0388165f908152600b6020908152604082208054600181018255908352912001819055600c543411156115e757600c5433906108fc906115c090346139f3565b6040518115909202915f818181858888f193505050501580156115e5573d5f803e3d5ffd5b505b876001600160a01b0316817f47a02f800e670d6e4f16855aec3367a057665d51998edaed65636fa10624969e888a604051610a0992919061394c565b61162b612345565b478061166f5760405162461bcd60e51b81526020600482015260136024820152724e6f206665657320746f20776974686472617760681b60448201526064016106fe565b6007546040516001600160a01b039091169082156108fc029083905f818181858888f19350505050158015610a27573d5f803e3d5ffd5b60096020525f90815260409020805481906116c0906137ee565b80601f01602080910402602001604051908101604052809291908181526020018280546116ec906137ee565b80156117375780601f1061170e57610100808354040283529160200191611737565b820191905f5260205f20905b81548152906001019060200180831161171a57829003601f168201915b50505050509080600101805461174c906137ee565b80601f0160208091040260200160405190810160405280929190818152602001828054611778906137ee565b80156117c35780601f1061179a576101008083540402835291602001916117c3565b820191905f5260205f20905b8154815290600101906020018083116117a657829003601f168201915b5050505050908060020180546117d8906137ee565b80601f0160208091040260200160405190810160405280929190818152602001828054611804906137ee565b801561184f5780601f106118265761010080835404028352916020019161184f565b820191905f5260205f20905b81548152906001019060200180831161183257829003601f168201915b50505050509080600301549080600401805461186a906137ee565b80601f0160208091040260200160405190810160405280929190818152602001828054611896906137ee565b80156118e15780601f106118b8576101008083540402835291602001916118e1565b820191905f5260205f20905b8154815290600101906020018083116118c457829003601f168201915b5050506005909301549192505060ff1686565b5f6107288261230e565b611906612345565b600e805461ff001981166101009182900460ff1615909102179055565b5f6001600160a01b03821661194d576040516322718ad960e21b81525f60048201526024016106fe565b506001600160a01b03165f9081526003602052604090205490565b611970612345565b6119795f6125ab565b565b611983612345565b600e805460ff19811660ff90911615179055565b61199f612345565b600c80549082905560408051828152602081018490527f7864bf708cae822050e5f50960a0de31bd6fe7620a8f67a48582fb95f29c114a91015b60405180910390a15050565b6119ed612345565b600d80549082905560408051828152602081018490527f940334a9f5c76529ad9447ac490c2073b06d880209383a3d3e4b0ecab72a0d9991016119d9565b60606001805461073c906137ee565b610a273383836125fc565b6001600160a01b038216611a9b5760405162461bcd60e51b815260206004820152601f60248201527f43616e6e6f74207472616e7366657220746f207a65726f20616464726573730060448201526064016106fe565b336001600160a01b03831603611af35760405162461bcd60e51b815260206004820152601b60248201527f43616e6e6f74207472616e7366657220746f20796f757273656c66000000000060448201526064016106fe565b5f815111611b435760405162461bcd60e51b815260206004820152601f60248201527f546f6b656e204944732061727261792063616e6e6f7420626520656d7074790060448201526064016106fe565b600e545f90610100900460ff16611b5a575f611b69565b8151600d54611b699190613a06565b600e54909150610100900460ff1615611bd85780341015611bd85760405162461bcd60e51b815260206004820152602360248201527f496e73756666696369656e74207472616e736665722066656520666f722062616044820152620e8c6d60eb1b60648201526084016106fe565b5f5b8251811015611d63575f838281518110611bf657611bf6613a1d565b602002602001015190505f6001600160a01b0316611c13826122d0565b6001600160a01b031603611c395760405162461bcd60e51b81526004016106fe906137c0565b5f8181526009602052604090206005015460ff16611c695760405162461bcd60e51b81526004016106fe90613979565b33611c73826118f4565b6001600160a01b031614611c995760405162461bcd60e51b81526004016106fe906139b0565b611ca333826123e0565b6001600160a01b0385165f908152600b60209081526040808320805460018101825590845282842001849055838352600a9091528120805491611ce583613834565b9190505550611cfb611cf43390565b868361249a565b6001600160a01b038516336001600160a01b0316827fd779e8c2de288998c807bfb186d47d82b06c29e962e3954a025f76377c231425600a5f8681526020019081526020015f2054604051611d5291815260200190565b60405180910390a450600101611bda565b50600e54610100900460ff168015611d7a57508034115b1561131957336108fc611d8d83346139f3565b6040518115909202915f818181858888f19350505050158015611234573d5f803e3d5ffd5b5f8181611dbe826122d0565b6001600160a01b031603611de45760405162461bcd60e51b81526004016106fe906137c0565b50505f9081526009602052604090206005015460ff1690565b815f611e08826122d0565b6001600160a01b031603611e2e5760405162461bcd60e51b81526004016106fe906137c0565b5f8381526009602052604090206005015460ff16611e5e5760405162461bcd60e51b81526004016106fe90613979565b611e71611e6a846118f4565b3385612547565b611e8d5760405162461bcd60e51b81526004016106fe90613a31565b611e998585858561269a565b5050505050565b6060815f611ead826122d0565b6001600160a01b031603611ed35760405162461bcd60e51b81526004016106fe906137c0565b611edc836126b2565b9392505050565b611f1c6040518060c001604052806060815260200160608152602001606081526020015f8152602001606081526020015f151581525090565b815f611f27826122d0565b6001600160a01b031603611f4d5760405162461bcd60e51b81526004016106fe906137c0565b5f8381526009602052604090819020815160c08101909252805482908290611f74906137ee565b80601f0160208091040260200160405190810160405280929190818152602001828054611fa0906137ee565b8015611feb5780601f10611fc257610100808354040283529160200191611feb565b820191905f5260205f20905b815481529060010190602001808311611fce57829003601f168201915b50505050508152602001600182018054612004906137ee565b80601f0160208091040260200160405190810160405280929190818152602001828054612030906137ee565b801561207b5780601f106120525761010080835404028352916020019161207b565b820191905f5260205f20905b81548152906001019060200180831161205e57829003601f168201915b50505050508152602001600282018054612094906137ee565b80601f01602080910402602001604051908101604052809291908181526020018280546120c0906137ee565b801561210b5780601f106120e25761010080835404028352916020019161210b565b820191905f5260205f20905b8154815290600101906020018083116120ee57829003601f168201915b505050505081526020016003820154815260200160048201805461212e906137ee565b80601f016020809104026020016040519081016040528092919081815260200182805461215a906137ee565b80156121a55780601f1061217c576101008083540402835291602001916121a5565b820191905f5260205f20905b81548152906001019060200180831161218857829003601f168201915b50505091835250506005919091015460ff1615156020909101529392505050565b6001600160a01b039182165f90815260056020908152604080832093909416825291909152205460ff1690565b805f6121fe826122d0565b6001600160a01b0316036122245760405162461bcd60e51b81526004016106fe906137c0565b612230611206836118f4565b61228a5760405162461bcd60e51b815260206004820152602560248201527f4275726e2063616c6c6572206973206e6f74206f776e6572206e6f72206170706044820152641c9bdd995960da1b60648201526084016106fe565b610a27826127b5565b61229b612345565b6001600160a01b0381166122c457604051631e4fbdf760e01b81525f60048201526024016106fe565b6122cd816125ab565b50565b5f908152600260205260409020546001600160a01b031690565b5f6001600160e01b03198216632483248360e11b14806107285750610728826127ed565b5f80612319836122d0565b90506001600160a01b03811661072857604051637e27328960e01b8152600481018490526024016106fe565b6007546001600160a01b031633146119795760405163118cdaa760e01b81523360048201526024016106fe565b610a27828260405180602001604052805f81525061283c565b5f8281526006602052604090206123a28282613890565b506040518281527ff8e1a15aba9398e019f0b49df1a4fde98ee17ae345cb5f6b5e2c27f5033e8ce7906020016119d9565b6113198383836001612853565b6001600160a01b0382165f908152600b60205260408120905b8154811015611234578282828154811061241557612415613a1d565b905f5260205f200154036124925781548290612433906001906139f3565b8154811061244357612443613a1d565b905f5260205f20015482828154811061245e5761245e613a1d565b905f5260205f2001819055508180548061247a5761247a613a7a565b600190038181905f5260205f20015f90559055611234565b6001016123f9565b6001600160a01b0382166124c357604051633250574960e11b81525f60048201526024016106fe565b5f6124cf83835f612957565b90506001600160a01b0381166124fb57604051637e27328960e01b8152600481018390526024016106fe565b836001600160a01b0316816001600160a01b031614611234576040516364283d7b60e01b81526001600160a01b03808616600483015260248201849052821660448201526064016106fe565b5f6001600160a01b038316158015906125a35750826001600160a01b0316846001600160a01b03161480612580575061258084846121c6565b806125a357505f828152600460205260409020546001600160a01b038481169116145b949350505050565b600780546001600160a01b038381166001600160a01b0319831681179093556040519116919082907f8be0079c531659141344cd1fd0a4f28419497f9722a3daafe3b4186f6b6457e0905f90a35050565b6001600160a01b03821661262e57604051630b61174360e31b81526001600160a01b03831660048201526024016106fe565b6001600160a01b038381165f81815260056020908152604080832094871680845294825291829020805460ff191686151590811790915591519182527f17307eab39ab6107e8899845ad3d59bd9653f200f220920489ca2b5937696c31910160405180910390a3505050565b6126a584848461249a565b6112343385858585612b2b565b60606126bd8261230e565b505f82815260066020526040812080546126d6906137ee565b80601f0160208091040260200160405190810160405280929190818152602001828054612702906137ee565b801561274d5780601f106127245761010080835404028352916020019161274d565b820191905f5260205f20905b81548152906001019060200180831161273057829003601f168201915b505050505090505f61276960408051602081019091525f815290565b905080515f0361277a575092915050565b8151156127ac578082604051602001612794929190613a8e565b60405160208183030381529060405292505050919050565b6125a384612c52565b5f6127c15f835f612957565b90506001600160a01b038116610a2757604051637e27328960e01b8152600481018390526024016106fe565b5f6001600160e01b031982166380ac58cd60e01b148061281d57506001600160e01b03198216635b5e139f60e01b145b8061072857506301ffc9a760e01b6001600160e01b0319831614610728565b6128468383612cc2565b611319335f858585612b2b565b808061286757506001600160a01b03821615155b15612928575f6128768461230e565b90506001600160a01b038316158015906128a25750826001600160a01b0316816001600160a01b031614155b80156128b557506128b381846121c6565b155b156128de5760405163a9fbf51f60e01b81526001600160a01b03841660048201526024016106fe565b81156129265783856001600160a01b0316826001600160a01b03167f8c5be1e5ebec7d5bd14f71427d1e84f3dd0314c0f7b2291e5b200ac8c7c3b92560405160405180910390a45b505b50505f90815260046020526040902080546001600160a01b0319166001600160a01b0392909216919091179055565b5f80612964858585612d23565b90506001600160a01b0381161580159061298657506001600160a01b03851615155b15612a405761299581856123e0565b6001600160a01b0385165f908152600b60209081526040808320805460018101825590845282842001879055868352600a90915281208054916129d783613834565b9190505550846001600160a01b0316816001600160a01b0316857fd779e8c2de288998c807bfb186d47d82b06c29e962e3954a025f76377c231425600a5f8981526020019081526020015f2054604051612a3391815260200190565b60405180910390a46125a3565b6001600160a01b03811615801590612a5f57506001600160a01b038516155b15612ad557612a6e81856123e0565b5f84815260096020526040812090612a868282612fdb565b612a93600183015f612fdb565b612aa0600283015f612fdb565b600382015f9055600482015f612ab69190612fdb565b50600501805460ff191690555f848152600a60205260408120556125a3565b6001600160a01b038116158015612af457506001600160a01b03851615155b156125a3576001600160a01b0385165f908152600b6020908152604082208054600181018255908352912001849055949350505050565b6001600160a01b0383163b15611e9957604051630a85bd0160e11b81526001600160a01b0384169063150b7a0290612b6d908890889087908790600401613abc565b6020604051808303815f875af1925050508015612ba7575060408051601f3d908101601f19168201909252612ba491810190613af8565b60015b612c0e573d808015612bd4576040519150601f19603f3d011682016040523d82523d5f602084013e612bd9565b606091505b5080515f03612c0657604051633250574960e11b81526001600160a01b03851660048201526024016106fe565b805160208201fd5b6001600160e01b03198116630a85bd0160e11b14612c4a57604051633250574960e11b81526001600160a01b03851660048201526024016106fe565b505050505050565b6060612c5d8261230e565b505f612c7360408051602081019091525f815290565b90505f815111612c915760405180602001604052805f815250611edc565b80612c9b84612e10565b604051602001612cac929190613a8e565b6040516020818303038152906040529392505050565b6001600160a01b038216612ceb57604051633250574960e11b81525f60048201526024016106fe565b5f612cf783835f612957565b90506001600160a01b03811615611319576040516339e3563760e11b81525f60048201526024016106fe565b5f80612d2e846122d0565b90506001600160a01b03831615612d4a57612d4a818486612ea0565b6001600160a01b03811615612d8457612d655f855f80612853565b6001600160a01b0381165f90815260036020526040902080545f190190555b6001600160a01b03851615612db2576001600160a01b0385165f908152600360205260409020805460010190555b5f8481526002602052604080822080546001600160a01b0319166001600160a01b0389811691821790925591518793918516917fddf252ad1be2c89b69c2b068fc378daa952ba7f163c4a11628f55a4df523b3ef91a4949350505050565b60605f612e1c83612f04565b60010190505f8167ffffffffffffffff811115612e3b57612e3b6130e6565b6040519080825280601f01601f191660200182016040528015612e65576020820181803683370190505b5090508181016020015b5f19016f181899199a1a9b1b9c1cb0b131b232b360811b600a86061a8153600a8504945084612e6f57509392505050565b612eab838383612547565b611319576001600160a01b038316612ed957604051637e27328960e01b8152600481018290526024016106fe565b60405163177e802f60e01b81526001600160a01b0383166004820152602481018290526044016106fe565b5f8072184f03e93ff9f4daa797ed6e38ed64bf6a1f0160401b8310612f425772184f03e93ff9f4daa797ed6e38ed64bf6a1f0160401b830492506040015b6d04ee2d6d415b85acef81000000008310612f6e576d04ee2d6d415b85acef8100000000830492506020015b662386f26fc100008310612f8c57662386f26fc10000830492506010015b6305f5e1008310612fa4576305f5e100830492506008015b6127108310612fb857612710830492506004015b60648310612fca576064830492506002015b600a83106107285760010192915050565b508054612fe7906137ee565b5f825580601f10612ff6575050565b601f0160209004905f5260205f20908101906122cd91905b80821115613021575f815560010161300e565b5090565b5f60208284031215613035575f80fd5b5035919050565b6001600160e01b0319811681146122cd575f80fd5b5f60208284031215613061575f80fd5b8135611edc8161303c565b5f5b8381101561308657818101518382015260200161306e565b50505f910152565b5f81518084526130a581602086016020860161306c565b601f01601f19169290920160200192915050565b602081525f611edc602083018461308e565b80356001600160a01b03811681146130e1575f80fd5b919050565b634e487b7160e01b5f52604160045260245ffd5b604051601f8201601f1916810167ffffffffffffffff81118282101715613123576131236130e6565b604052919050565b5f67ffffffffffffffff831115613144576131446130e6565b613157601f8401601f19166020016130fa565b905082815283838301111561316a575f80fd5b828260208301375f602084830101529392505050565b5f82601f83011261318f575f80fd5b611edc8383356020850161312b565b5f805f805f8060c087890312156131b3575f80fd5b6131bc876130cb565b9550602087013567ffffffffffffffff808211156131d8575f80fd5b6131e48a838b01613180565b965060408901359150808211156131f9575f80fd5b6132058a838b01613180565b9550606089013591508082111561321a575f80fd5b6132268a838b01613180565b9450608089013591508082111561323b575f80fd5b6132478a838b01613180565b935060a089013591508082111561325c575f80fd5b5061326989828a01613180565b9150509295509295509295565b5f8060408385031215613287575f80fd5b613290836130cb565b946020939093013593505050565b5f67ffffffffffffffff8211156132b7576132b76130e6565b5060051b60200190565b5f82601f8301126132d0575f80fd5b813560206132e56132e08361329e565b6130fa565b8083825260208201915060208460051b870101935086841115613306575f80fd5b602086015b848110156133295761331c816130cb565b835291830191830161330b565b509695505050505050565b5f82601f830112613343575f80fd5b813560206133536132e08361329e565b82815260059290921b84018101918181019086841115613371575f80fd5b8286015b8481101561332957803567ffffffffffffffff811115613393575f80fd5b6133a18986838b0101613180565b845250918301918301613375565b5f805f805f8060c087890312156133c4575f80fd5b863567ffffffffffffffff808211156133db575f80fd5b6133e78a838b016132c1565b975060208901359150808211156133fc575f80fd5b6134088a838b01613334565b9650604089013591508082111561341d575f80fd5b6134298a838b01613334565b9550606089013591508082111561343e575f80fd5b61344a8a838b01613334565b9450608089013591508082111561345f575f80fd5b61346b8a838b01613334565b935060a0890135915080821115613480575f80fd5b5061326989828a01613334565b602080825282518282018190525f9190848201906040850190845b818110156134c4578351835292840192918401916001016134a8565b50909695505050505050565b5f805f606084860312156134e2575f80fd5b6134eb846130cb565b92506134f9602085016130cb565b9150604084013590509250925092565b803580151581146130e1575f80fd5b5f8060408385031215613529575f80fd5b8235915061353960208401613509565b90509250929050565b5f60208284031215613552575f80fd5b611edc826130cb565b60c081525f61356d60c083018961308e565b828103602084015261357f818961308e565b90508281036040840152613593818861308e565b905085606084015282810360808401526135ad818661308e565b91505082151560a0830152979650505050505050565b5f80604083850312156135d4575f80fd5b6135dd836130cb565b915061353960208401613509565b5f80604083850312156135fc575f80fd5b613605836130cb565b915060208084013567ffffffffffffffff811115613621575f80fd5b8401601f81018613613631575f80fd5b803561363f6132e08261329e565b81815260059190911b8201830190838101908883111561365d575f80fd5b928401925b8284101561367b57833582529284019290840190613662565b80955050505050509250929050565b5f805f806080858703121561369d575f80fd5b6136a6856130cb565b93506136b4602086016130cb565b925060408501359150606085013567ffffffffffffffff8111156136d6575f80fd5b8501601f810187136136e6575f80fd5b6136f58782356020840161312b565b91505092959194509250565b602081525f825160c0602084015261371c60e084018261308e565b90506020840151601f198085840301604086015261373a838361308e565b92506040860151915080858403016060860152613757838361308e565b92506060860151608086015260808601519150808584030160a08601525061377f828261308e565b91505060a0840151151560c08401528091505092915050565b5f80604083850312156137a9575f80fd5b6137b2836130cb565b9150613539602084016130cb565b602080825260149082015273151bdad95b88191bd95cc81b9bdd08195e1a5cdd60621b604082015260600190565b600181811c9082168061380257607f821691505b60208210810361071857634e487b7160e01b5f52602260045260245ffd5b634e487b7160e01b5f52601160045260245ffd5b5f6001820161384557613845613820565b5060010190565b601f82111561131957805f5260205f20601f840160051c810160208510156138715750805b601f840160051c820191505b81811015611e99575f815560010161387d565b815167ffffffffffffffff8111156138aa576138aa6130e6565b6138be816138b884546137ee565b8461384c565b602080601f8311600181146138f1575f84156138da5750858301515b5f19600386901b1c1916600185901b178555612c4a565b5f85815260208120601f198616915b8281101561391f57888601518255948401946001909101908401613900565b508582101561393c57878501515f19600388901b60f8161c191681555b5050505050600190811b01905550565b604081525f61395e604083018561308e565b8281036020840152613970818561308e565b95945050505050565b60208082526019908201527f546f6b656e206973206e6f74207472616e7366657261626c6500000000000000604082015260600190565b60208082526023908201527f596f7520617265206e6f7420746865206f776e6572206f66207468697320746f60408201526235b2b760e91b606082015260800190565b8181038181111561072857610728613820565b808202811582820484141761072857610728613820565b634e487b7160e01b5f52603260045260245ffd5b60208082526029908201527f5472616e736665722063616c6c6572206973206e6f74206f776e6572206e6f7260408201526808185c1c1c9bdd995960ba1b606082015260800190565b634e487b7160e01b5f52603160045260245ffd5b5f8351613a9f81846020880161306c565b835190830190613ab381836020880161306c565b01949350505050565b6001600160a01b03858116825284166020820152604081018390526080606082018190525f90613aee9083018461308e565b9695505050505050565b5f60208284031215613b08575f80fd5b8151611edc8161303c56fea26469706673582212202b8fdbd6cbe837089cf8c9a6a0702a7d7fe9a22a5ba0c9d15bf2002720e6a3dc64736f6c63430008180033","linkReferences":{}},"methodIdentifiers":{"approve(address,uint256)":"095ea7b3","artworks(uint256)":"4b602673","balanceOf(address)":"70a08231","batchMintArtworks(address[],string[],string[],string[],string[],string[])":"0fa9a6c5","batchTransfer(address,uint256[])":"ac3c9952","burnArtwork(uint256)":"f2c82bf0","getApproved(uint256)":"081812fc","getArtworkMetadata(uint256)":"e6cb84d0","getTokensByOwner(address)":"40398d67","getTransferCount(uint256)":"003a4a0f","isApprovedForAll(address,address)":"e985e9c5","isTransferable(uint256)":"b2564569","mintArtwork(address,string,string,string,string,string)":"472ef63e","mintArtworkByOwner(address,string,string,string,string,string)":"091a67e6","mintFee()":"13966db5","mintingEnabled()":"9fd6db12","name()":"06fdde03","owner()":"8da5cb5b","ownerOf(uint256)":"6352211e","renounceOwnership()":"715018a6","safeTransferFrom(address,address,uint256)":"42842e0e","safeTransferFrom(address,address,uint256,bytes)":"b88d4fde","setApprovalForAll(address,bool)":"a22cb465","setTokenTransferable(uint256,bool)":"35f8f574","supportsInterface(bytes4)":"01ffc9a7","symbol()":"95d89b41","toggleMinting()":"7d55094d","toggleTransferFees()":"695b9d66","tokenURI(uint256)":"c87b56dd","totalSupply()":"18160ddd","transferArtwork(address,uint256)":"0c45ed07","transferFee()":"acb2ad6f","transferFeesEnabled()":"effb3c53","transferFrom(address,address,uint256)":"23b872dd","transferHistory(uint256)":"816c99de","transferOwnership(address)":"f2fde38b","updateMintFee(uint256)":"84017e52","updateTransferFee(uint256)":"8577a6d5","withdrawFees()":"476343ee"},"id":40}